:020000040800F2
:10000000600A002089010008E1270008CB230008CE
:10001000DD27000859050008FD2F0008000000003A
:10002000000000000000000000000000312D00086A
:100030000D0600080000000001280008332D00080C
:10004000A3010008A3010008A3010008A301000800
:10005000A3010008A3010008A3010008A3010008F0
:10006000A3010008A3010008A30100085D05000822
:10007000A3010008A30100086D0500087D05000824
:10008000A3010008A3010008A3010008A3010008C0
:10009000A3010008A3010008A3010008A3010008B0
:1000A000A3010008A3010008A3010008A3010008A0
:1000B000A3010008A3010008A3010008A301000890
:1000C000A3010008A3010008A3010008A301000880
:1000D000A3010008A3010008A3010008A301000870
:1000E000A3010008A3010008A301000800F002F822
:1000F00000F03AF80AA090E8000C82448344AAF188
:100100000107DA4501D100F02FF8AFF2090EBAE885
:100110000F0013F0010F18BFFB1A43F0010318473B
:100120000038000020380000103A24BF78C878C199
:10013000FAD8520724BF30C830C144BF04680C60ED
:10014000704700000023002400250026103A28BF35
:1001500078C1FBD8520728BF30C148BF0B60704739
:100160001FB51FBD10B510BD00F0F9F81146FFF71F
:10017000F7FF02F089FF00F017F903B4FFF7F2FF71
:1001800003BC00F01BF900000948804709480047FC
:10019000FEE7FEE7FEE7FEE7FEE7FEE7FEE7FEE737
:1001A000FEE7FEE704480549054A064B7047000094
:1001B000BF2D0008ED00000860040020600A002048
:1001C0006006002060060020032A40F2308010F014
:1001D000030C00F0158011F8013BBCF1020F6244E2
:1001E00098BF11F801CB00F8013B38BF11F8013B73
:1001F000A2F1040298BF00F801CB38BF00F8013B20
:1002000011F0030300F05780083AC0F0088051F85D
:10021000043B083A51F804CBA0E80810F5E7121D9A
:100220005CBF51F8043B40F8043BAFF30080D207B9
:1002300024BF11F8013B11F801CB48BF11F8012B85
:1002400024BF00F8013B00F801CB48BF00F8012BA8
:10025000704702F0FF0343EA032242EA024200F041
:100260005EB84FF0000200B513469446964620391A
:1002700022BFA0E80C50A0E80C50B1F12001BFF45F
:10028000F7AF090728BFA0E80C5048BF0CC05DF8C5
:1002900004EB890028BF40F8042B08BF704748BF13
:1002A00020F8022B11F0804F18BF00F8012B704787
:1002B00070477047704710B5203AC0F00B80B1E826
:1002C0001850203AA0E81850B1E81850A0E818508B
:1002D000BFF4F5AF5FEA027C24BFB1E81850A0E894
:1002E000185044BF18C918C0BDE810405FEA827CAE
:1002F00024BF51F8043B40F8043B08BF7047D207C5
:1003000028BF31F8023B48BF11F8012B28BF20F865
:10031000023B48BF00F8012B70474FF00002042950
:10032000C0F0128010F0030C3FF49DAFCCF1040C30
:10033000BCF1020F18BF00F8012BA8BF20F8022B58
:10034000A1EB0C01FFF78FBF5FEAC17C24BF00F86F
:10035000012B00F8012B48BF00F8012B70477546B0
:1003600000F028F8AE4605006946534620F0070025
:10037000854618B020B5FFF715FFBDE820404FF0C7
:1003800000064FF000074FF000084FF0000B21F07F
:100390000701AC46ACE8C009ACE8C009ACE8C0094C
:1003A000ACE8C0098D4670470446AFF30080204694
:1003B000FFF7E3FE004870470004002001491820C1
:1003C000ABBEFEE72600020070470000014611B1F7
:1003D000092904D101E0002070470120FCE7022038
:1003E000014A1070FF20F7E72C00002070B504468A
:1003F00000252068806800F0010018B3206880683C
:1004000020F001002168886000F044FF054613E0F9
:1004100000F040FF401B02280ED92068806800F0E1
:10042000010048B1A06A40F01000A062E06A40F00C
:100430000100E062012070BD2068806800F00100CA
:100440000028E5D10020F6E770B505466C6AA06A81
:1004500000F05000E0B9A06A40F40070A06220688B
:10046000806800F46020B0F5602F0DD1207B58B972
:10047000A06A20F48070A062A06A00F4805018B9CD
:10048000A06A40F00100A062204600F001FA03E0FB
:10049000206A016B2846884770BD70B505466C6AB6
:1004A000A06A40F04000A062E06A40F00400E06210
:1004B000204600F0EFF970BD70B50446656A284625
:1004C00000F0E7F970BD000038B5044600250020B3
:1004D00000902068806800F0010078BB2068806888
:1004E00040F0010021688860194800681949B0FB94
:1004F000F1F0009002E00098401E00900098002863
:10050000F9D100F0C7FE054619E000F0C3FE401B1C
:10051000022814D92068806800F0010078B9A06A28
:1005200040F01000A062E06A40F00100E06200BF0D
:10053000002084F8240000BF012038BD05E02068B9
:10054000806800F001000028DFD00020F5E70000FF
:100550000C00002040420F0000BFFEE710B502482B
:1005600000F096FB10BD00006800002010B50248A6
:1005700000F08EFB10BD00004801002010B50248BD
:1005800000F086FB10BD00000401002030B590F89B
:1005900040500124AC40C56B6C60046863604468E3
:1005A000102C04D10468A2600468E16003E00468D0
:1005B000A1600468E26030BD70B504460D46164681
:1005C00025706570A57000F065FE6060268170BDC5
:1005D00001468878012803D1487808B9012070477E
:1005E0000020FCE770B504460D4600F053FE0646B9
:1005F0002078A84201D0257066606068301A218991
:10060000884202D36078A070657070BD704772B682
:1006100000BFFEE7F8B5044600260020009000BFAA
:1006200094F82400012801D10220F8BD012084F8AB
:10063000240000BF2046FFF7D9FE06462046FFF7FC
:1006400043FF0646002E69D1A06A20F4885040F08E
:100650000200A062022000F0F5FE34490968B1FBF7
:10066000F0F04000009002E00098401E00900098DA
:100670000028F9D12068806840F00800216888606F
:1006800000F008FE054616E000F004FE401B0A28B4
:1006900011D92068806800F0080060B1A06A20F0DD
:1006A000020040F01000A06200BF002084F8240087
:1006B00000BF0120B9E72068806800F0080000282A
:1006C000E2D12068806840F004002168886000F072
:1006D000E1FD054616E000F0DDFD401B0A2811D9BA
:1006E0002068806800F0040060B1A06A20F0020079
:1006F00040F01000A06200BF002084F8240000BF7A
:10070000012092E72068806800F004000028E2D110
:10071000A06A20F0020040F00100A06200BF0020AB
:1007200084F8240000BF30467FE700000C00002062
:1007300038B5024600230020009000BF92F8240044
:10074000012801D1022038BD012082F8240000BF19
:100750004868072812D21068406B0C79641E04EBBD
:1007600084051F24AC40A0430D796D1E05EB850563
:100770000C68AC4020431468606327E048680D288B
:1007800012D21068006B0C79E41F04EB84051F245F
:10079000AC40A0430D79ED1F05EB85050C68AC401E
:1007A00020431468206311E01068C06A0C790D3C86
:1007B00004EB84051F24AC40A0430D790D3D05EBEF
:1007C00085050C68AC4020431468E06208680A287C
:1007D00012D31068C0680C780A3C04EB4405072467
:1007E000AC40A0430D780A3D05EB45058C68AC4054
:1007F00020431468E0600FE0106800690C7804EB97
:1008000044050724AC40A0430D7805EB45058C68F2
:10081000AC402043146820610868102802D00868A2
:10082000112827D1174C1068A0421ED1106880688B
:1008300000F40000F0B91068806840F4000014680B
:10084000A0600868102815D10F4800680F4CB0FB55
:10085000F4F000EB80004000009002E00098401EA1
:10086000009000980028F9D104E0906A40F0200040
:100870009062012300BF002082F8240000BF1846C8
:1008800061E70000002401400C00002040420F00FE
:1008900070477047704700002DE9F041044600277B
:1008A00000250026A84614B90120BDE8F081A06803
:1008B00010B1207D00B100BFA06A30B90020E06215
:1008C00084F82400204600F089F82046FFF78EFDCA
:1008D0000746A06A00F01000002873D1002F71D1E4
:1008E000A06A20F4885040F00200A062E1696068CC
:1008F0000843217B40EA41000643A068B0F5807FB1
:1009000002D0A068012802D14FF4807000E00020DE
:100910000543207D012811D1207B38B9A069401EF4
:100920004FF4006141EA4030054307E0A06A40F01F
:100930002000A062E06A40F00100E06220684068A8
:1009400020F4694028432168486020688068214974
:100950000840304321688860A068B0F5807F02D0ED
:10096000A068012802D14FF4807000E00020B0F5AB
:10097000807F03D1208A401E4FEA00582068C06A59
:1009800020F4700040EA08002168C862206880688E
:1009900011490840B04208D10020E062A06A20F06E
:1009A000020040F00100A06211E0A06A20F0020005
:1009B00040F01000A062E06A40F00100E062012710
:1009C00005E0FFE7A06A40F01000A062012738466A
:1009D0006BE70000FDF7E1FFFE0E1FFF10B586B0CC
:1009E0000446002002900390049005902C49206852
:1009F000884253D100BF2B48806940F400702949D8
:100A000088610846806900F40070019000BF00BF53
:100A100000BF0846806940F004008861084680698C
:100A200000F00400019000BF00BF00BF08468069CD
:100A300040F0080088610846806900F008000190D5
:100A400000BF00BF012002900320039002A91648B6
:100A500000F082FA022002900320039002A91348BA
:100A600000F07AFA1248134908600020486000211B
:100A7000104881608021C1604900016189004161A5
:100A8000202181610021C16100F0D0F908B1FFF798
:100A9000BEFD00BF07482062446200BF06B010BD23
:100AA000002401400010024000080140000C0140F9
:100AB00008000240680000202DE9F04104460D4680
:100AC0001646002757492068884203D056492068B7
:100AD000884205D15348001D006800F4702000E0F2
:100AE000002000287ED100BF94F82400012802D104
:100AF0000220BDE8F081012084F8240000BF2046D8
:100B0000FFF7E2FC0746002F6DD1A06A40F60161B5
:100B1000884340F48070A06243492068884209D12C
:100B20004048001D006800F4702008B9012002E070
:100B3000002000E0012078B1A06A20F48010A062BB
:100B40002068406800F4806000B3A06A20F4005080
:100B500040F48050A06219E0A06A40F48010A062C6
:100B600030492068884203D02F492068884205D147
:100B70002C48001D006800F4806000E0002028B1CF
:100B8000A06A20F4005040F48050A062A06A00F4F3
:100B9000805020B1E06A20F00600E06201E0002011
:100BA000E06200BF002084F8240000BF1F48216AD3
:100BB00088621F48216AC8621E48216A08636FF074
:100BC0000200216808602068806840F48070216815
:100BD0008860226802F14C0133462A46206A00F000
:100BE00059F901E01AE014E02068806800F4602000
:100BF000B0F5602F06D12068806840F4A00021681D
:100C000088600CE02068806840F48010216888606B
:100C100005E000BF002084F8240000E001273846EA
:100C200067E7000000240140002801404904000853
:100C3000B90400089B0400080146002291F8210035
:100C4000022808D00420886300BF002081F820001B
:100C500000BF012070470868006820F00E000B6894
:100C600018600868006820F001000B68186091F8AF
:100C7000403001209840CB6B5860012081F8210062
:100C800000BF002081F8200000BF1046E2E700000E
:100C900070B50446E06B05682068066894F840105B
:100CA000042088402840002846D006F00400002890
:100CB00042D02068006800F0200028B92068006851
:100CC00020F004002168086057492068884201D15B
:100CD000042027E0544914312068884201D1402083
:100CE00020E0514928312068884201D1001519E0DF
:100CF0004D493C312068884202D14FF4804011E0D8
:100D0000494950312068884202D14FF4802009E0DF
:100D1000454964312068884202D14FF4800001E0E7
:100D20004FF08060404908394860E06A00287AD076
:100D30002046E16A884776E094F840100220884017
:100D40002840A0B306F0020088B32068006800F0D5
:100D5000200040B92068006820F00A00216808607F
:100D6000012084F8210030492068884201D1022006
:100D700028E02D4914312068884201D1202021E04B
:100D8000294928312068884201D140151AE02649B6
:100D90003C312068884202D14FF4005012E02249D1
:100DA00050312068884203D14FF400300AE017E048
:100DB0001D4964312068884202D14FF4001001E0DF
:100DC0004FF0007018490839486000BF002084F8CF
:100DD000200000BFA06A30B32046A16A884722E005
:100DE00094F84010082088402840E0B106F0080040
:100DF000C8B12068006820F00E002168086094F8EF
:100E0000401001208840E16B48600120A06384F815
:100E1000210000BF002084F8200000BF206B10B12B
:100E20002046216B884770BD080002400146002221
:100E300009B901207047164B0868C01A1423B0FB8B
:100E4000F3F08000086412480838C863022081F873
:100E500021000868026843F6F0708243D1E901037B
:100E60001843CB6818430B6918434B6918438B69C7
:100E70001843CB6918430243086802600020886366
:100E8000012081F82100002081F8200000BFD1E777
:100E9000080002402DE9F04104460D4616461F4663
:100EA0004FF0000800BF94F82000012802D1022072
:100EB000BDE8F081012084F8200000BF94F82100F3
:100EC00001282CD1022084F821000020A063206892
:100ED000006820F00100216808603B463246294640
:100EE0002046FFF753FBE06A30B12068006840F00D
:100EF0000E00216808600BE02068006820F0040004
:100F0000216808602068006840F00A0021680860D5
:100F10002068006840F001002168086006E000BF1A
:100F2000002084F8200000BF4FF002084046BFE7D1
:100F300070B5044600F0AEF906462546681C10B1AF
:100F400004480078054400BF00F0A4F9801BA842C3
:100F5000FAD370BD080000202DE9F84703460022AF
:100F600094466EE14FF0010808FA02F4D1F80080CF
:100F700008EA0400A0427DD1DFF8DCA2D1F80480A9
:100F8000A8EB0A09D0453AD014DCB8F1030F50D0D1
:100F900009DCB8F1000F31D0B8F1010F1CD0B8F165
:100FA000020F49D120E0B8F1110F18D0B8F1120F9B
:100FB00042D11EE0B9F5881F25D006DCB9F5803F87
:100FC00020D0B9F5801F37D11AE0B9F5001F18D02D
:100FD000B9F5041F30D117E0D1F80CC02DE0D1F8DD
:100FE0000C8008F1040C28E0D1F80C8008F1080C02
:100FF00023E0D1F80C8008F10C0C1EE000BF00BF0C
:1010000000BF00BF00BF00BFD1F80880B8F1000FDB
:1010100002D14FF0040C0BE0D1F80880B8F1010FB9
:1010200003D14FF0080C1C6102E04FF0080C5C612A
:1010300003E04FF0000C00E000BF00BFFF2801D824
:10104000984601E003F104084646FF2802D84FEA1B
:10105000820803E0A2F108084FEA88084746D6F85C
:1010600000804FF00F0909FA07F928EA09080CFA7D
:1010700007F900E088E048EA0908C6F80080D1F8DE
:10108000048008F08058B8F1805F7DD100BFDFF8A0
:10109000CC81D8F8188048F00108DFF8C091C9F871
:1010A0001880C846D8F8188008F00108CDF80080EC
:1010B00000BF00BF4FEAB9384FEA920958F82950EB
:1010C0004FEA82784FEA18794FF00F0808FA09F8CA
:1010D00025EA0805DFF88881434502D14FF0000872
:1010E00016E0DFF88081434502D14FF001080FE0A0
:1010F000DFF87481434502D14FF0020808E0DFF8C1
:101100006C81434502D14FF0030801E04FF0040821
:101110004FEA82794FEA197908FA09F848EA050591
:10112000DFF84C814FEA920948F82950D1F8048041
:1011300008F48018B8F5801F0AD1DFF83881D8F894
:10114000008048EA0008DFF82C91C9F8008009E027
:10115000DFF82081D8F8008028EA0008DFF8149131
:10116000C9F80080D1F8048008F40018B8F5001F11
:1011700010D1DFF8008108F10408D8F8008048EAAF
:101180000008DFF8F09000E05AE009F10409C9F81E
:1011900000800DE0DFF8DC8008F10408D8F800805A
:1011A00028EA0008DFF8CC9009F10409C9F80080AA
:1011B000D1F8048008F40038B8F5003F0ED1DFF80C
:1011C000B480A8F10408D8F8008048EA0008DFF8E5
:1011D000A490A9F10409C9F800800DE0DFF894801B
:1011E000A8F10408D8F8008028EA0008DFF8849005
:1011F000A9F10409C9F80080D1F8048008F4803806
:10120000B8F5803F0ED1DFF86C80A8F10808D8F857
:10121000008048EA0008DFF85C90A9F10809C9F8E5
:1012200000800DE0DFF84C80A8F10808D8F80080B5
:1012300028EA0008DFF83C90A9F10809C9F8008005
:10124000521CD1F8008028FA02F8B8F1000F7FF4A0
:1012500089AEBDE8F88700000000111000100240C0
:1012600000080140000C0140001001400014014042
:101270000800014008040140024693680B400BB18E
:10128000012000E0002070470AB1016101E00B0479
:1012900003617047014800687047000000000020AB
:1012A0000348006803490978084401490860704709
:1012B000000000200800002010B50848006840F039
:1012C000100006490860032000F0A8F80F2000F085
:1012D00007F800F02BF8002010BD000000200240AD
:1012E00070B504460E4800784FF47A71B1FBF0F007
:1012F0000C490968B1FBF0F5284600F064FF08B11D
:10130000012070BD102C07D200222146501E00F093
:1013100047F80548046001E00120F2E70020F0E70B
:10132000080000200C0000200400002008B500BFC9
:101330001148806940F001000F49886108468069C2
:1013400000F00100009000BF00BF00BF0846C06968
:1013500040F08050C8610846C06900F0805000909D
:1013600000BF00BF00BF0549486820F0E06040F0C2
:101370000070486000BF08BD00100240000001403E
:1013800001460846002809DB00F01F0301229A40AD
:1013900043099B0003F1E023C3F8002100BF70471D
:1013A0002DE9F05F80460D461646002701F028FE25
:1013B000074639462A46334601F00700C0F1070ABE
:1013C000BAF1040F02D94FF0040A01E0C0F1070A94
:1013D000D14600F1040ABAF1070F02D24FF0000A19
:1013E00001E0A0F1030AD4464FF0010A0AFA09FA13
:1013F000AAF1010A0AEA020A0AFA0CFA4FF0010BF2
:101400000BFA0CFBABF1010B0BEA030B4AEA0B04E2
:101410002146404601F0FCFDBDE8F09F00BF00F012
:101420000702064B19684FF6FF031940044B0B43A4
:1014300043EA0221014B196000BF70470CED00E048
:101440000000FA052DE9F04706464FF00008002598
:1014500000270024A146012E31D0022E56D0102E96
:101460005FD132484468006800F0807008B33048AB
:10147000C4F38341475C04F4803078B12B48406862
:10148000C0F340402B4911F8008004F4803040B193
:101490002948B0FBF8F000FB07F502E0274807FBFE
:1014A00000F52248406800F48000B0F5800F01D1BB
:1014B000A94603E068000321B0FBF1F932E01B48C4
:1014C000046A04F44070B0F5807F05D104F0020096
:1014D00010B14FF4004918E004F44070B0F5007FFB
:1014E00007D11248406A00F0020010B149F64049A5
:1014F0000BE004F44070B0F5407F06D10B48006863
:1015000000F4003008B14FF224490BE000F08CF9F0
:1015100006494968C1F38131491C4900B0FBF1F922
:1015200000E000BF00BF4846BDE8F0870010024061
:10153000D5380008E538000800127A0000093D009F
:10154000F8B5044600260025207800F001000028A8
:101550006BD000274348C06900F0805070B900BFCD
:101560004048C06940F080503E49C8610846C069A3
:1015700000F08050009000BF00BF01273A4800688B
:1015800000F48070B0B93848006840F48070364983
:101590000860FFF77FFE064606E0FFF77BFE801B34
:1015A000642801D90320F8BD2F48006800F480703A
:1015B0000028F2D02B48006A00F440752DB3A088B3
:1015C00000F44070A84220D02648006A20F44075FC
:1015D000012026490860002008602248056205F0C5
:1015E000010090B1FFF756FE064608E0FFF752FEF5
:1015F000801B41F28831884201D90320D3E7194882
:10160000006A00F002000028F0D01648006A20F4BA
:1016100040706168084313490862012F04D10846ED
:10162000C06920F08050C86100BF207800F002003F
:10163000022807D10B48406820F44040A1680843C5
:1016400008494860207800F01000102807D10548AC
:10165000406820F48000E1680843024948600020A7
:10166000A1E7000000100240007000404004424228
:1016700070B504460D460CB9012070BD5A4800688B
:1016800000F00700A8420ED25748006820F007007B
:101690002843554908600846006800F00700A84242
:1016A00001D00120E9E7207800F0020002281DD1D6
:1016B000207800F00400042805D14C48406840F42C
:1016C000E0604A494860207800F00800082805D109
:1016D0004648406840F46050444948604348406888
:1016E00020F0F000A168084340494860207800F0ED
:1016F000010078B36068012806D13C48006800F416
:10170000003090B90120B8E76068022806D1374858
:10171000006800F0007040B90120AEE7334800686F
:1017200000F0020008B90120A7E73048406820F027
:101730000300616808432D494860FFF7ABFD06468A
:1017400009E0FFF7A7FD801B41F28831884202D9EA
:10175000032092E707E02548406800F00C0061682C
:10176000B0EB810FEDD12048006800F00700A842DF
:101770000ED91D48006820F0070028431A49086068
:101780000846006800F00700A84201D0012074E775
:10179000207800F00400042807D11448406820F4A1
:1017A000E060E168084311494860207800F00800D3
:1017B000082808D10D48406820F46050216940EAAB
:1017C000C1000A49486000F03FF808494968C1F380
:1017D0000311074A515CC840064908600648006882
:1017E000FFF77EFD002048E7002002400010024085
:1017F000E73800080C0000200400002001480068C1
:10180000704700000C00002000B5FFF7F7FF044907
:101810004968C1F30221034A515CC84000BD000081
:1018200000100240F738000800B5FFF7E7FF044951
:101830004968C1F3C221034A515CC84000BD0000A1
:1018400000100240F738000870B500210022002483
:1018500000230020134D696801F00C05F5B1042D3B
:1018600002D0082D19D101E00F4819E00F4DC1F346
:101870008346AB5D01F4803555B10A4D6D68C5F303
:1018800040450B4E725D084D5D43B5FBF2F402E03E
:10189000084D03FB05F4204602E000BF024800BFEC
:1018A00000BF70BD0010024000127A00C33800086B
:1018B000D338000800093D00F8B504460CB90120F2
:1018C000F8BD207800F00100002878D0F848406882
:1018D00000F00C0004280CD0F548406800F00C0023
:1018E000082811D1F248406800F48030B0F5803FFC
:1018F0000AD1EF48006800F4003000285FD060682B
:1019000000285CD10120DBE700BF6068B0F5803FB4
:1019100006D1E748006840F48030E549086028E0D7
:10192000606858B9E248006820F48030E0490860F7
:101930000846006820F4802008601AE06068B0F56E
:10194000A02F0BD1DA48006840F48020D849086005
:101950000846006840F4803008600AE0D448006817
:1019600020F48030D24908600846006820F48020C6
:10197000086000BF606888B1FFF78CFC054606E090
:10198000FFF788FC401B642801D9032098E7C8486A
:10199000006800F400300028F2D010E0FFF77AFC75
:1019A000054606E0FFF776FC401B642801D90320BA
:1019B00086E7BF48006800F400300028F2D12078A4
:1019C00000F00200022857D1B948406800F00C002E
:1019D00050B1B748406800F00C00082818D1B4484E
:1019E000406800F4803098B9B148006800F0020007
:1019F00020B12069012801D0012061E7AC480068CE
:101A000020F0F800616940EAC100A949086033E0AC
:101A10002069E8B10120A7490860FFF73BFC0546B3
:101A200006E0FFF737FC401B022801D9032047E7F7
:101A30009F48006800F002000028F2D09C4800682F
:101A400020F0F800616940EAC1009949086013E09C
:101A5000002098490860FFF71DFC054606E0FFF7E7
:101A600019FC401B022801D9032029E7904800688F
:101A700000F002000028F2D1207800F008000828C9
:101A80002DD1A069B8B101208B490860FFF702FC95
:101A9000054606E0FFF7FEFB401B022801D90320A4
:101AA0000EE78348406A00F002000028F2D00120CF
:101AB00000F0A8FE13E000207F490860FFF7EAFB72
:101AC000054606E0FFF7E6FB401B022801D903208C
:101AD000F6E67748406A00F002000028F2D120784C
:101AE00000F00400042873D100277148C06900F099
:101AF000805070B900BF6E48C06940F080506C499A
:101B0000C8610846C06900F08050009000BF00BF67
:101B100001276A48006800F48070B0B9674800681F
:101B200040F4807065490860FFF7B4FB054606E0A5
:101B3000FFF7B0FB401B642801D90320C0E65F48D3
:101B4000006800F480700028F2D000BFE06801282F
:101B500006D15748006A40F001005549086227E065
:101B6000E06858B95248006A20F001005049086204
:101B70000846006A20F00400086219E0E0680528C1
:101B80000BD14B48006A40F00400494908620846FE
:101B9000006A40F0010008620AE04548006A20F04F
:101BA0000100434908620846006A20F00400086208
:101BB00000BFE068A0B1FFF76DFB054609E0FFF745
:101BC00069FB401B41F28831884202D9032077E645
:101BD00022E03748006A00F002000028EFD012E04F
:101BE000FFF758FB054608E0FFF754FB401B41F2A6
:101BF0008831884201D9032062E62D48006A00F04E
:101C000002000028F0D1012F05D12948C06920F039
:101C100080502749C86100BFE069C8B324484068C4
:101C200000F00C00082860D0E069022848D10020AC
:101C300020490866FFF72EFB054606E0FFF72AFB62
:101C4000401B022801D903203AE61948006800F039
:101C500000700028F2D1206AB0F5803F07D1144807
:101C6000406820F40030A168084311494860D4E975
:101C7000080108430E49496821F4741108430C49CE
:101C8000486001200B490866FFF704FB054607E0A2
:101C90003DE0FFF7FFFA401B022801D903200FE6C1
:101CA0000348006800F000700028F2D02FE0000028
:101CB0000010024000004242800442420070004096
:101CC000002014490866FFF7E5FA054606E0FFF72D
:101CD000E1FA401B022801D90320F1E50E48006813
:101CE00000F000700028F2D111E0E069012800D175
:101CF000E6E50948466806F48031206A814204D14D
:101D000006F47011606A814201D00120D8E50020FC
:101D1000D6E5000000004242001002403EB50446F5
:101D20000025524800681821B0FBF1F04FF47A7199
:101D3000B0FBF1F0642148430190019802902068C3
:101D4000406820F02000216848602068406800F06A
:101D5000800098B14648606400BF029820B9606D69
:101D600040F04000606506E00298401E029094F842
:101D700051000728F1D100BF019802902068406807
:101D800000F0400098B13B48206400BF029820B9A1
:101D9000606D40F04000606506E00298401E0290D1
:101DA00094F851000728F1D100BF019802902068F3
:101DB000406800F0020010B3A06C00B30020A16CDA
:101DC0004863A06CFEF738FF08B1402060652068CA
:101DD000406820F002002168486000BF029820B9E6
:101DE000606D40F04000606508E00298401E02907F
:101DF0002068806800F002000028EFD000BF206853
:101E0000406800F00100B0B1E06CA0B10020E16CCE
:101E10004863E06CFEF710FF08B140206065206861
:101E2000006820F04000216808602068406820F0C9
:101E30000100216848600020E087E086606D40284E
:101E400001D1012501E00020606500BF0020009065
:101E50002068C068009020688068009000BF00BFC4
:101E6000012084F8510028463EBD00000C000020EF
:101E7000592A0008E929000810B50446024884429E
:101E800001D101F045FA10BDAC00002010B50446A8
:101E90000CB9012010BD606A38B96068B0F5827F66
:101EA00000D105E00021E16102E0002121616161D2
:101EB0000021A16294F8510028B9002084F8500054
:101EC000204600F043F8022084F8510020680068A2
:101ED00020F0400021680860A08800F48270218909
:101EE00001F404410843A18901F400610843217C05
:101EF00001F002010843217D01F001010843218B1B
:101F000001F400710843217F01F0380108432021CA
:101F1000095D01F080010843218D01F4005108435F
:101F2000216808600421A06901EA10402168486026
:101F30002068C06920F400602168C86100206065E5
:101F4000012084F851000020A4E7000010B586B0FD
:101F500004460020029003900490059034492068C4
:101F6000884262D100BF3348C06940F480403149A3
:101F7000C8610846C06900F48040019000BF00BFFE
:101F800000BF0846806940F0080088610846806903
:101F900000F00800019000BF00BF4FF42040029005
:101FA000022003900320059002A92348FEF7D4FFE6
:101FB0004FF48040029000200390049002A91E4834
:101FC000FEF7CAFF1D481E49086010204860002126
:101FD0001B4881608021C1600021016141618161F4
:101FE000C161FEF723FF08B1FEF711FB00BF1448E3
:101FF000A064446200BF11481438124908600020F0
:10200000486000210F4881608021C160002101618A
:1020100041618161C161FEF709FF08B1FEF7F7FA7E
:1020200000BF0848E064446200BF06B010BD000075
:102030000038004000100240000C014058000240EF
:102040000401002048010020704770472DE9F04747
:1020500004460E4617461D4694F85180D4F8049065
:10206000B8F1010F0AD0B9F5827F04D1A06810B988
:10207000B8F1040F02D00220BDE8F0870EB107B11D
:102080000DB90120F8E700BF94F85000012801D1F4
:102090000220F1E7012084F8500000BF94F85100BD
:1020A000042802D0052084F85100002060652663D2
:1020B000A586E586A763A587E5872064606494F814
:1020C0005100042806D13548E16CC8623448E16CFF
:1020D000886205E03348E16CC8623348E16C88628D
:1020E0003248E16C08630020E16C4863E38FD4F868
:1020F00000C00CF10C01A26BE06CFEF7CBFE50B1FE
:10210000606D40F01000606500BF002084F8500052
:1021100000BF0120B0E72068406840F0010021685E
:1021200048600020A16CC862A16C8862A16C086341
:10213000A16C4863E38ED4F800C00CF10C02216B53
:10214000A06CFEF7A7FE50B1606D40F01000606516
:1021500000BF002084F8500000BF01208CE72068F9
:10216000006800F04000402805D02068006840F07A
:1021700040002168086000BF002084F8500000BFC4
:102180002068406840F0200021684860206840686E
:1021900040F002002168486000206DE7A12A000895
:1021A000BD2A0008AF2A0008372B0008792A00084A
:1021B00010B504460248844201D101F0A9F810BDCF
:1021C000AC000020704770B504462546681EB0F18B
:1021D000807F01D301200FE0681E4FF0E0214861AD
:1021E0000F214FF0FF3000F013FF00204FF0E021EF
:1021F000886107200861002070BD10B504460CB945
:10220000012010BDA06900B100E000BF94F84100BA
:1022100028B9002084F84000204600F029F8242046
:1022200084F841002068C06820F400502168C8602C
:10223000204600F01FFE2068006920F490402168CD
:1022400008612068406920F02A0021684861206800
:10225000C06840F400502168C860002060642020FD
:1022600084F8410084F842000020606300BFC8E7A2
:1022700010B586B0044600200290039004900590AB
:102280001E492068884236D100BF1D48806940F44D
:1022900080401B4988610846806900F480400190B5
:1022A00000BF00BF00BF0846806940F00800886199
:1022B0000846806900F00800019000BF00BF402080
:1022C0000290022003900320059002A90D48FEF71A
:1022D00043FE8020029000200390049002A9094848
:1022E000FEF73AFE00BF0849486840F0E06040F061
:1022F0000400486000BF06B010BD00000038014077
:1023000000100240000C0140000001402DE9F84F90
:1023100004460E46174699464FF0000A94F84100CD
:10232000202850D106B117B90120BDE8F88F002050
:102330006064212084F84100FEF7ACFF8246A78448
:10234000E784A068B0F5805F04D1206910B900254A
:10235000B04602E035464FF000081EE0534600222A
:1023600080212046CDF8009000F002FE20B1202010
:1023700084F841000320D8E745B9B8F80000C0F35D
:1023800008002168486008F1020803E02878216805
:1023900048606D1CE08C401EE084E08C0028DDD19C
:1023A0005346002240212046CDF8009000F0E0FD89
:1023B00020B1202084F841000320B6E7202084F8D3
:1023C00041000020B1E70220AFE700BFFEE70000B8
:1023D00070B5002007E000211D4A22F810101D4AA8
:1023E00042F82010401C0228F5DB00200AE0002102
:1023F000194A42F82010194A22F8201002EB8002F4
:102400005180401C0228F2DB002015490870154855
:10241000FEF700F902220E491248FEF74DFB054671
:1024200025B104200E490870284670BD0220FEF731
:102430007FFD002408E0064931F8140001F0EAF8B5
:10244000044941F82400641C022CF4DB0020ECE772
:1024500010000020140000201C0000202400002098
:102460002C000020380000202DE9F04705460C46DE
:10247000022D00DA34B901203B4908700846007883
:10248000BDE8F0874FF6FF7020806080374800EB92
:102490000516307B00F0010050B37068FDF796FF21
:1024A0000746FF2F20D0324931F8170001F0B2F86B
:1024B0008246304901F0C2F880462F4850F8271074
:1024C0002E4801F0BBF88146414601F021F82A4927
:1024D00041F8270051F8270001F07CF8208020887F
:1024E000274921F8250002E01F480078C8E700BF0F
:1024F000307B00F0020058B3B068FDF767FF074675
:10250000FF2F21D01A4931F8170001F083F88246D5
:10251000184901F093F88046174850F827101748DB
:1025200001F08CF88146414600F0F2FF124941F873
:10253000270051F8270001F04DF8608060881049AD
:1025400001EB8501488002E00748007898E700BF6A
:102550000C4850F82500401C0A4941F8250000208D
:102560000149087000BF8BE72C00002000390008EB
:1025700010000020CDCCCC3D140000206666663FE4
:10258000240000201C00002010B580210148FEF727
:1025900073FE10BD000801400EB5002000900190B0
:1025A0000290184818490860811517488160012178
:1025B0000173002101754FF46021C16100201249AF
:1025C0004860022110480161FEF766F908B1FEF784
:1025D0001EF800200090012001900320029069461F
:1025E0000948FEF7A5F808B1FEF711F80920009098
:1025F0000220019069460448FEF79AF808B1FEF7F8
:1026000006F80EBD002401403800002008B500BFC8
:102610001248406940F0010010494861084640698D
:1026200000F00100009000BF00BF002211460B2007
:10263000FEF7B6FE0B20FEF7A3FE002211460E2089
:10264000FEF7AEFE0E20FEF79BFE002211460F2085
:10265000FEF7A6FE0F20FEF793FE08BD0010024015
:1026600000B585B00020019002900390049000BF57
:102670003748806940F01000354988610846806914
:1026800000F01000009000BF00BF00BF0846806946
:1026900040F0200088610846806900F0200000902A
:1026A00000BF00BF00BF0846806940F00400886199
:1026B0000846806900F00400009000BF00BF00BF22
:1026C0000846806940F0080088610846806900F08B
:1026D0000800009000BF00BF00224FF400511D48C9
:1026E000FEF7D2FD00224FF440711B48FEF7CCFDEF
:1026F0004FF400500190012002900020039002202E
:10270000049001A91348FEF727FC802001900020C7
:1027100002900120039001A90F48FEF71DFC012043
:10272000019000200290039001A90C48FEF714FCD0
:102730004FF440700190012002900020039002208D
:10274000049001A90448FEF707FC05B000BD000095
:10275000001002400010014000080140000C014040
:1027600010B50E480E4908604FF482704860002191
:102770000B488160C160016141614FF4007181616A
:102780001021C16100210162416281620A21C1629E
:10279000FFF77CFB08B1FDF73AFF10BD00380040A1
:1027A000AC00002010B50B480B4908604FF4E13035
:1027B0004860002108488160C16001610C214161CD
:1027C00000218161C161FFF718FD08B1FDF71FFF0E
:1027D00010BD0000003801408C01002000BFFEE762
:1027E00000BFFEE700B97047034908600121034AB2
:1027F000117000BFF7E70000300000203400002017
:102800007047000008B508490968C9084FF47A7292
:10281000B1FBF2F14143009100BF00BF00994A1E95
:1028200000920029F9D108BD0C00002010B50F223C
:1028300001210A48FDF7C0FE0F2200210848FDF7DC
:10284000BBFE11210748FDF70CFD0748007805493C
:10285000087006480078487010BD0000E8010020AC
:10286000F4010020D40100202D0000202E000020C3
:102870001CB501211D48FEF7FFFC044621461C48FB
:10288000FDF7B0FE1A48FDF7A3FE08B100F098FA74
:10289000FFF77AFE044621461648FDF7A3FE1648C8
:1028A000007828B91348FDF793FE08B100F09AFAB2
:1028B00001A90020FFF7D8FD69460120FFF7D4FDEC
:1028C000BDF8040000B20D494880BDF8060000B212
:1028D0008880BDF8000000B2C880BDF8020000B2D8
:1028E000088100F07FF8054988721CBD000C01408A
:1028F000F4010020E80100202D000020D401002078
:1029000010B500F073FC0A20FEF712FB0021084608
:1029100000F0A8FD08B1012010BD0520FEF708FB5E
:1029200000F094FC00F080FC4C21052000F09AFDA2
:1029300008B10120F0E70621084600F093FD08B138
:102940000120E9E705222649102000F093FD08B197
:102950000120E1E7052222490A2000F08BFD08B1A1
:102960000120D9E70021012000F07CFD08B1012001
:10297000D2E700211C2000F075FD08B10120CBE753
:1029800000211D2000F06EFD08B10120C4E70321E5
:10299000084600F067FD08B10120BDE701210220D3
:1029A00000F060FD08B10120B6E71521042000F019
:1029B00059FD08B10120AFE70A242146002000F0AC
:1029C00051FD08B10120A7E70520FEF7B1FA7021FB
:1029D000072000F047FD08B101209DE700209BE79C
:1029E000BE380008002070470CB50021019119493C
:1029F00009681822B1FBF2F14FF47A72B1FBF2F1DF
:102A000064225143009100BF009921B9416D41F00A
:102A10004001416508E00099491E009101688968FC
:102A200001F002010029EFD000BF0168096821F020
:102A30004001026811600168496821F0E001026804
:102A400051600168C968019100BF072180F85110E9
:102A50000CBD00000C0000200168496821F08001D5
:102A6000026851600168096821F040010268116044
:102A7000072180F85110704770B505466C6A2068D0
:102A8000406820F0030021684860606D40F010004D
:102A90006065012084F851002046FFF7EDF970BD14
:102AA00070B50446656A2846FFF7CFFA70BD70B569
:102AB0000446656A2846FFF785FB70BD70B505467C
:102AC0006C6AFEF7E7FB06462868006800F0200005
:102AD00020282BD02068406820F020002168486022
:102AE000A06850B96068B0F5827F06D12068406860
:102AF00020F003002168486005E02068406820F06D
:102B000001002168486032466421204600F046F802
:102B100008B1202060650020E087012084F8510082
:102B2000606D18B12046FFF7A7F970BD2046FFF78A
:102B30008BFA00BFF9E770B505466C6AFEF7AAFB91
:102B400006462868006800F02000202821D0206870
:102B5000406820F020002168486032466421204609
:102B600000F058F818B1606D40F0200060652068F2
:102B7000406820F00300216848600020E086E0877C
:102B8000012084F85100606D18B12046FFF774F9F8
:102B900070BD2046FFF70CFB00BFF9E7F8B504460F
:102BA0000E4615466068B0F5827F0DD1A068B0F57D
:102BB000004F03D0A068B0F5806F05D12068006891
:102BC00020F04000216808606068B0F5827F11D174
:102BD000A068B0F5806F0DD1334600220121204658
:102BE000009500F039F898B1606D40F02000606504
:102BF0000320F8BD3346002280212046009500F0D6
:102C00002BF828B1606D40F0200060650320F0E7EC
:102C10000020EEE7F8B504460E461546334601227D
:102C200002212046009500F017F828B1606D40F0B1
:102C3000200060650320F8BD334600228021204635
:102C4000009500F009F828B1606D40F02000606543
:102C50000320F0E70020EEE72DE9F84F04460D468B
:102C600090461E46DDF82890FEF714FBA0EB090005
:102C7000371AFEF70FFB82462C480068C0F3CB30B2
:102C80007843009045E0701C002842D0FEF702FB1C
:102C9000A0EB0A00B84200D2A7BB2068406820F031
:102CA000E000216848606068B0F5827F0DD1A068BF
:102CB000B0F5004F03D0A068B0F5806F05D1206853
:102CC000006820F0400021680860A06AB0F5005F4D
:102CD0000DD100BF2068006820F400502168086012
:102CE0002068006840F400502168086000BF01209F
:102CF00084F8510000BF002084F8500000BF03207A
:102D0000BDE8F88FFFE7009800B900270098401E43
:102D10000090206880682840A84201D1012000E08E
:102D200000204045AFD10020EAE700000C00002061
:102D3000704710B5FEF7B4FA10BD00B593B0282166
:102D400009A8FDF78EFA142104A8FDF78AFA0020DD
:102D500000900190029003900120099000040A90D5
:102D600000200B9001200D9002201090C1031191C2
:102D70004FF4E011129109A8FEF79EFD08B1FDF78E
:102D800046FC0F20049002200590002006904FF48E
:102D90008060079000200890022104A8FEF768FCDC
:102DA00008B1FDF734FC02200090800302906846D1
:102DB000FEF7C6FB08B1FDF72AFC13B000BD704753
:102DC0000648007808B9012000E000200349087097
:102DD0000846007802490870704700002D00002066
:102DE000D40100200648007808B9012000E0002046
:102DF000034908700846007802494870704700008F
:102E00002E000020D401002000BF00BF02680C3259
:102E100052E8002F22F4907102680C3242E800134D
:102E2000002BF3D100BF00BF00BF0268143252E88C
:102E3000002F22F001010268143242E80013002B37
:102E4000F3D100BF016B01290ED100BF00BF0268A2
:102E50000C3252E8002F22F0100102680C3242E8D6
:102E60000013002BF3D100BF202180F84210002175
:102E70000163704770B504462168096921F4405127
:102E8000E2681143226811612269A16811436269F5
:102E900041EA02052168C96841F20C629143294365
:102EA0002268D1602168496921F44071A269114307
:102EB000226851612D4A2168914202D1FEF7B4FC8B
:102EC00001E0FEF7A1FC00EBC00101EB001162681C
:102ED0009200B1FBF2F100EBC00202EB001263685A
:102EE0009B00B2FBF3F26423B2FBF3F202EBC203EA
:102EF00003EB0212A1EB8201322202EB01116422E8
:102F0000B1FBF2F101F0F00100EBC00202EB0012A4
:102F100063689B00B2FBF3F26423B2FBF3F201EBB4
:102F2000021200EBC00101EB001163689B00B1FBD2
:102F3000F3F100EBC00303EB00136668B600B3FBCC
:102F4000F6F36426B3FBF6F303EBC30606EB0313B9
:102F5000A1EB8301322303EB01116423B1FBF3F1F5
:102F600001F00F0111442268916070BD00380140EA
:102F70002DE9F84304460D4617469846089E31E071
:102F8000701C70B3FEF786F9A0EB0800B04200D8C1
:102F900016B90320BDE8F8832068C06800F004007B
:102FA000F8B1802D1ED0402D1CD020680068C0F3E1
:102FB000C000B0B100BF0020009020680068009001
:102FC00020684068009000BF00BF2046FFF71CFF4C
:102FD0000820606400BF002084F8400000BF01208A
:102FE000D8E7FFE7206800682840A84201D1012007
:102FF00000E00020B842C3D00020CBE700BFFEE7CE
:1030000002480068C0F30220704700000CED00E0A9
:1030100010B5002804DB0A07130E054A135406E016
:103020000A07140E034A00F00F031B1FD45410BDEF
:1030300000E400E018ED00E010B501225102024862
:10304000FEF722F910BD00000008014010B5002273
:103050004FF400710148FEF717F910BD0008014058
:1030600010B5012211020248FEF70EF910BD000052
:103070000008014010B500224FF480710148FEF7AE
:1030800003F910BD00080140FEF716F9FFF755FEE1
:10309000FFF7E6FAFFF7BAFAFFF762FBFFF77CFAF1
:1030A000FFF780FBFFF794F92448FFF79BFBFFF73E
:1030B00027FC38B16423112221A12648FFF726F905
:1030C000FDF7A5FAFFF7B2FB64230D2222A12148E8
:1030D000FFF71CF94FF47A70FDF72AFF002400BFB8
:1030E0002AE0FFF7C5FBFEF7D5F80546281B322876
:1030F0001ED32C46142211211B4800F0D1F806469D
:1031000036B90A23042219A11248FFF7FFF80EE08E
:10311000032E06D10A23092216A10E48FFF7F6F85E
:1031200005E00A23072216A10A48FFF7EFF800BFBF
:103130000120FDF7FDFE00BFD3E70000AC0000203A
:103140004E5246323420494E4954204641494C0D96
:103150000A0000008C0100205243205458205245A0
:103160004144590D0A000000D40100204F4B0D0AC4
:103170000000000054494D454F55540D0A00000011
:103180004552524F520D0A0070B5FFF755FF0F24FC
:103190001348006800F0010068B91248006840F068
:1031A0008070104908600E48006840F001000C492A
:1031B000086000204860FEF721FB0B49B0FBF1F0EE
:1031C00000FB04F60648456800E000BF044840687C
:1031D000401BB042F9D300BFFFF738FF70BD0000BD
:1031E000001000E0FCED00E040420F0010B500BF11
:1031F0000B48006840F08070094908600948006881
:1032000040F00100074908600020486000BFFFF758
:1032100027FFFFF71BFF0520FDF78AFE10BD00000A
:10322000FCED00E0001000E01CB5E2200190002061
:103230000090FFF71FFF32230122694601A800F02A
:103240006DF80446FFF70CFF20461CBD1CB5E120BD
:10325000019000200090FFF70DFF32230122694604
:1032600001A800F05BF80446FFF7FAFE20461CBDFB
:103270007CB50446FF20019000200090FFF7FAFE85
:1032800032230122694601A800F048F80546FFF7FD
:10329000E7FE1DB914B19DF80000207028467CBDE2
:1032A0002DE9F84307460D46904607B115B90120B0
:1032B000BDE8F88300241DE0281B202801DD202024
:1032C00001E0281BC0B281463819494600F0F7F8E2
:1032D00006460EB13046EBE70020009069464046B6
:1032E00000F086F806460EB13046E1E704EB09002F
:1032F00084B200BFAC42DFDB0020D9E7034800788E
:1033000008B9012070470020FCE7000034000020CD
:103310000120014908707047340000202DE9F05F5A
:1033200007460C46154698462D48006800B115B969
:103330000120BDE8F09FB5F5807F01DD0120F8E7B1
:10334000B946A24637B9FF2229462648FCF781FF35
:10335000DFF890900CB9DFF890A0FDF79BFF0646D0
:1033600006E0FDF797FF801B404501D90320E0E709
:10337000FFF7C4FF0028F4D11C4908702B465246C1
:10338000494617480068FEF761FE8346BBF1000F0F
:1033900004D00120154908705846CAE7FDF77AFFA6
:1033A00006460DE0FDF776FF801B404508D90C4826
:1033B0000068FEF7B3FC01200C4908700320B8E751
:1033C0000A4800780028EDD03CB10748824504D176
:1033D0002A4601462046FCF7F7FE0020A9E7000038
:1033E00030000020000200200003002034000020F4
:1033F000F8B505460C46FDF74DFF064600BF002018
:1034000000906846FFF734FF08B10120F8BD9DF831
:10341000000000F0200048B12021072000F022F831
:1034200014B19DF8000020700020EFE79DF8000027
:1034300000F0100058B11021072000F013F8FFF73A
:1034400005FF14B19DF8000020700120DEE7FDF7B4
:1034500021FF801BA84201D90320D7E70120FDF7F7
:1034600067FDCCE713B50446012201A9204600F010
:1034700001F81CBDF0B593B005460E46144616B1D2
:103480000CB1202C02DD012013B0F0BD05F01F00AF
:1034900040F020008DF82800224631460DF1290029
:1034A000FCF792FEFFF7E6FD3223621C01A90AA891
:1034B000FFF734FF0746FFF7D3FD3846E4E770B562
:1034C00092B005460C4615B10CB1202C02DD01204E
:1034D00012B070BDFFF7BAFDA0208DF8240022467F
:1034E00029460DF12500FCF76FFEFFF7C3FD3223DF
:1034F000621C694609A8FFF711FF0646FFF7B0FDF9
:103500000EB13046E4E7FFF73FFE0020E0E70000A1
:1035100090EA010F48BF81F0004100F16281421A38
:103520003CBF801A89184FEAD0524FF07F4C1CEAFA
:10353000410FA2EBD15318BF9CEA026F00F03B8011
:103540004FF0004C4CEA00204CEA012121FA03FC28
:1035500010EB0C0C1ED202F1FF325FEA1C2040EB94
:10356000C25038BF70471CF07F0F4FEA400C18BFA5
:10357000BCF17F4F38BF7047C3F12003994008BFAB
:1035800020F00100BCF17F4F38BF7047A0F1C04070
:1035900000F01BB94FEA3C00000A40EBC25028BFC4
:1035A0001CF0FF0F4FEA400CE6D018BFBCF17F4F74
:1035B00038BF7047EAE79CEA026F05D010EA5C0F5B
:1035C00008BF00F00040704710B500F0B8F800BF29
:1035D00064FBBE3EC10DD1F19E0206DB4FEA002323
:1035E00043F0004323FA02F07047004207D54FEA48
:1035F0004001B1F1FE4F02D24FF00000704710B50C
:1036000000F09DF849922480002070476FEA200066
:1036100070470000B0FA80F310FA03F2C3F19D0383
:103620000AD0D90501EB1220530638BF704700F1CC
:10363000010008BF20F00100704700004FF47F0C2C
:103640001CEAD0121EBF1CEAD11392EA0C0F93EAB7
:103650000C0F00F0478090EA010F48BF42F48072DF
:103660004FF0004C4CEA00204CEA012102EB03022F
:10367000A0FB0113A2F50002002918BF43F00103CB
:103680005B0028BF4FEA330342EB22425FEA132C70
:103690004CEBC2502EBFBCEB436FB2F57C0F7047B2
:1036A0004FEA036CBCF1004F08BF20F00100B2F5F7
:1036B0007C0F38BF70470BD582F0FF0212F5803FB8
:1036C000C8BF704700F1C040D8BF00F0004070474D
:1036D00000F5000C5FEA4C0C48BF7047B0F1C040E9
:1036E00000F073B890EA010F0CEAD11348BF42F41E
:1036F0008072624538BF634504D280EA010000F061
:103700000040704710B500F01AF800BF8900013E74
:1037100000F007B800F009B85FEA410C5FEA1C6CE2
:1037200008D080EA010000F050B85FEA400C5FEA80
:103730001C6CF6D14FF00040A0F5800070470EF1F0
:10374000020E2EF0030E5EF8044B244204D44FEA1E
:103750004102B2F17F4F11D84FEA4003B3F17F4FDE
:103760000CD80ED14FEAD07CB2F17F4F0CEB4C0C51
:103770000CF1020C08BF4CEBD17C04E04FF0080CBC
:1037800001E04FEAD17C0CEB4C0324FA03F404F083
:103790000704B4F1040C06D20EEB840CBDE8104013
:1037A0004CF0010C6047DFE80CF0070802024FF014
:1037B0000040A0F5800010BD0846420018BFD2F1BD
:1037C000807288BF00F0004010BDFF2141EAD05058
:1037D000C005704790EA010F48BF81F000413FF5F6
:1037E0009EAE421A04D882F00042A0EB02001144BF
:1037F0004FEAD0524FF07F4C1CEA410FA2EBD1535D
:1038000018BF9CEA026F4AD04FF0004C4CEA0020EF
:103810004CEA012121FA03FCB0EB0C0C0FD412F09E
:10382000FE0F36D05FEA4C001DD5001240EBC250AF
:1038300038BF70471CF03F0F18BF70470BE0A2F174
:1038400001025FEA1C2040EBC25038BF70471CF0F9
:103850007F0F18BF7047C3F12003994014BF401E6B
:1038600020F00100704780084FEA122308BF70471C
:10387000B0FA80FCA2EB0C02CCF1280C60FA0CF040
:1038800093EA122F04BF00EBC25070474FEAC37097
:103890007047130A5FEADC1008BF7047F6E79CEA3E
:1038A000026F04D010EA5C0F08BF0020704710B50B
:1038B000FFF745FF40DFF63E81F00040704752437E
:1038C0004C4E4B02030405060708090A0B0C0D0EAB
:1038D0000F1010010202030405060708090A0B0C69
:1038E0000D0E0F101001020000000000000000018A
:1038F0000203040607080900000000010203040097
:103900000024014009000000000000000100000048
:103910000024014000000000000000000200000040
:10392000403900080000002038000000280100088D
:103930007839000838000020280A000044010008F7
:1039400000000000100000000100000000127A00DA
:103950000000000000000000000000000000000067
:103960000000000000000000000000000000000057
:0839700000000000000000004F
:04000005080000ED02
:00000001FF
