:020000040800F2
:10000000B00800208901000821220008291F0008EB
:100010001D220008CB030008B329000800000000DF
:10002000000000000000000000000000E1250008C2
:10003000F1030008000000006D220008AB26000854
:10004000A3010008A3010008A3010008A301000800
:10005000A3010008A3010008A3010008A3010008F0
:10006000A3010008A3010008A3010008A3010008E0
:10007000A3010008A3010008D1030008E103000860
:10008000A3010008A3010008A3010008A3010008C0
:10009000A3010008A3010008A3010008A3010008B0
:1000A000A3010008A3010008A3010008A3010008A0
:1000B000A3010008A3010008A3010008A301000890
:1000C000A3010008A3010008A3010008A301000880
:1000D00011240008A3010008A3010008A3010008DF
:1000E000F3030008A3010008A301000800F002F8D0
:1000F00000F03AF80AA090E8000C82448344AAF188
:100100000107DA4501D100F02FF8AFF2090EBAE885
:100110000F0013F0010F18BFFB1A43F0010318473B
:100120006C3000008C300000103A24BF78C878C1D1
:10013000FAD8520724BF30C830C144BF04680C60ED
:10014000704700000023002400250026103A28BF35
:1001500078C1FBD8520728BF30C148BF0B60704739
:100160001FB51FBD10B510BD00F0F9F81146FFF71F
:10017000F7FF02F09DFD00F017F903B4FFF7F2FF5F
:1001800003BC00F01BF900000948804709480047FC
:10019000FEE7FEE7FEE7FEE7FEE7FEE7FEE7FEE737
:1001A000FEE7FEE704480549054A064B7047000094
:1001B00019270008ED000008B0020020B008002058
:1001C000B0040020B0040020032A40F2308010F078
:1001D000030C00F0158011F8013BBCF1020F6244E2
:1001E00098BF11F801CB00F8013B38BF11F8013B73
:1001F000A2F1040298BF00F801CB38BF00F8013B20
:1002000011F0030300F07980083AC0F0088051F83B
:10021000043B083A51F804CBA0E80810F5E7121D9A
:100220005CBF51F8043B40F8043BAFF30080D207B9
:1002300024BF11F8013B11F801CB48BF11F8012B85
:1002400024BF00F8013B00F801CB48BF00F8012BA8
:10025000704702F0FF0343EA032242EA024200F041
:1002600002B84FF000020429C0F0128010F0030C15
:1002700000F01B80CCF1040CBCF1020F18BF00F899
:10028000012BA8BF20F8022BA1EB0C0100F00DB848
:100290005FEAC17C24BF00F8012B00F8012B48BFA6
:1002A00000F8012B70474FF0000200B5134694464A
:1002B0009646203922BFA0E80C50A0E80C50B1F1BE
:1002C0002001BFF4F7AF090728BFA0E80C5048BFD2
:1002D0000CC05DF804EB890028BF40F8042B08BF70
:1002E000704748BF20F8022B11F0804F18BF00F86C
:1002F000012B704770477047704710B5203AC0F027
:100300000B80B1E81850203AA0E81850B1E8185016
:10031000A0E81850BFF4F5AF5FEA027C24BFB1E853
:100320001850A0E8185044BF18C918C0BDE81040C4
:100330005FEA827C24BF51F8043B40F8043B08BFCD
:100340007047D20728BF31F8023B48BF11F8012B94
:1003500028BF20F8023B48BF00F8012B70477546C4
:1003600000F028F8AE4605006946534620F0070025
:10037000854618B020B5FFF715FFBDE820404FF0C7
:1003800000064FF000074FF000084FF0000B21F07F
:100390000701AC46ACE8C009ACE8C009ACE8C0094C
:1003A000ACE8C0098D4670470446AFF30080204694
:1003B000FFF7E3FE00487047500200200149182073
:1003C000ABBEFEE726000200704700BFFEE700005C
:1003D00010B5024800F09AF810BD0000840000201B
:1003E00010B5024800F092F810BD0000C8000020CF
:1003F000704710B54FF4805000F0A8F910BD72B6E8
:1004000000BFFEE70146002291F82100022808D033
:100410000420886300BF002081F8200000BF012075
:1004200070470868006820F00E000B6818600868C4
:10043000006820F001000B68186091F8403001203E
:100440009840CB6B5860012081F8210000BF00204C
:1004500081F8200000BF1046E2E7000070B50446B6
:10046000002594F82100022803D00420A063012570
:1004700048E02068006820F00E00216808602068CD
:10048000006820F00100216808601F492068884248
:1004900001D1012026E01C4914312068884201D195
:1004A00010201FE0184928312068884201D18015AA
:1004B00018E015493C312068884201D1801411E0D0
:1004C000114950312068884202D14FF4803009E050
:1004D0000D4964312068884202D14FF4801001E058
:1004E0004FF08070084908394860012084F82100E5
:1004F00000BF002084F8200000BF606B10B12046D0
:10050000616B8847284670BD0800024070B50446FC
:10051000E06B05682068066894F840100420884065
:100520002840002846D006F00400002842D0206869
:10053000006800F0200028B92068006820F004005E
:100540002168086057492068884201D1042027E0CB
:10055000544914312068884201D1402020E051499B
:1005600028312068884201D1001519E04D493C31FD
:100570002068884202D14FF4804011E0494950314F
:100580002068884202D14FF4802009E04549643157
:100590002068884202D14FF4800001E04FF0806073
:1005A000404908394860E06A00287AD02046E16A6C
:1005B000884776E094F84010022088402840A0B395
:1005C00006F0020088B32068006800F0200040B9FF
:1005D0002068006820F00A0021680860012084F883
:1005E000210030492068884201D1022028E02D49AD
:1005F00014312068884201D1202021E02949283186
:100600002068884201D140151AE026493C31206813
:10061000884202D14FF4005012E022495031206844
:10062000884203D14FF400300AE017E01D496431DD
:100630002068884202D14FF4001001E04FF00070B2
:1006400018490839486000BF002084F8200000BF26
:10065000A06A30B32046A16A884722E094F840108F
:10066000082088402840E0B106F00800C8B12068A2
:10067000006820F00E002168086094F84010012006
:100680008840E16B48600120A06384F8210000BF2E
:10069000002084F8200000BF206B10B12046216BA1
:1006A000884770BD080002400146002209B90120B8
:1006B0007047164B0868C01A1423B0FBF3F0800093
:1006C000086412480838C863022081F821000868CD
:1006D000026843F6F0708243D1E901031843CB6806
:1006E00018430B6918434B6918438B691843CB694E
:1006F000184302430868026000208863012081F8E3
:100700002100002081F8200000BFD1E7080002404E
:1007100070B5044600F0BEF906462546681C10B1C7
:1007200004480078054400BF00F0B4F9801BA842DB
:10073000FAD370BD0C000020B0F5805F02D101211A
:10074000014A1170704700000000002010B50446F7
:1007500004480068204020B1024804602046FFF7AA
:10076000EBFF10BD140401402DE9F84703460022B9
:1007700094466EE14FF0010808FA02F4D1F80080C7
:1007800008EA0400A0427DD1DFF8DCA2D1F80480A1
:10079000A8EB0A09D0453AD014DCB8F1030F50D0C9
:1007A00009DCB8F1000F31D0B8F1010F1CD0B8F15D
:1007B000020F49D120E0B8F1110F18D0B8F1120F93
:1007C00042D11EE0B9F5881F25D006DCB9F5803F7F
:1007D00020D0B9F5801F37D11AE0B9F5001F18D025
:1007E000B9F5041F30D117E0D1F80CC02DE0D1F8D5
:1007F0000C8008F1040C28E0D1F80C8008F1080CFA
:1008000023E0D1F80C8008F10C0C1EE000BF00BF03
:1008100000BF00BF00BF00BFD1F80880B8F1000FD3
:1008200002D14FF0040C0BE0D1F80880B8F1010FB1
:1008300003D14FF0080C1C6102E04FF0080C5C6122
:1008400003E04FF0000C00E000BF00BFFF2801D81C
:10085000984601E003F104084646FF2802D84FEA13
:10086000820803E0A2F108084FEA88084746D6F854
:1008700000804FF00F0909FA07F928EA09080CFA75
:1008800007F900E088E048EA0908C6F80080D1F8D6
:10089000048008F08058B8F1805F7DD100BFDFF898
:1008A000CC81D8F8188048F00108DFF8C091C9F869
:1008B0001880C846D8F8188008F00108CDF80080E4
:1008C00000BF00BF4FEAB9384FEA920958F82950E3
:1008D0004FEA82784FEA18794FF00F0808FA09F8C2
:1008E00025EA0805DFF88881434502D14FF000086A
:1008F00016E0DFF88081434502D14FF001080FE098
:10090000DFF87481434502D14FF0020808E0DFF8B8
:100910006C81434502D14FF0030801E04FF0040819
:100920004FEA82794FEA197908FA09F848EA050589
:10093000DFF84C814FEA920948F82950D1F8048039
:1009400008F48018B8F5801F0AD1DFF83881D8F88C
:10095000008048EA0008DFF82C91C9F8008009E01F
:10096000DFF82081D8F8008028EA0008DFF8149129
:10097000C9F80080D1F8048008F40018B8F5001F09
:1009800010D1DFF8008108F10408D8F8008048EAA7
:100990000008DFF8F09000E05AE009F10409C9F816
:1009A00000800DE0DFF8DC8008F10408D8F8008052
:1009B00028EA0008DFF8CC9009F10409C9F80080A2
:1009C000D1F8048008F40038B8F5003F0ED1DFF804
:1009D000B480A8F10408D8F8008048EA0008DFF8DD
:1009E000A490A9F10409C9F800800DE0DFF8948013
:1009F000A8F10408D8F8008028EA0008DFF88490FD
:100A0000A9F10409C9F80080D1F8048008F48038FD
:100A1000B8F5803F0ED1DFF86C80A8F10808D8F84F
:100A2000008048EA0008DFF85C90A9F10809C9F8DD
:100A300000800DE0DFF84C80A8F10808D8F80080AD
:100A400028EA0008DFF83C90A9F10809C9F80080FD
:100A5000521CD1F8008028FA02F8B8F1000F7FF498
:100A600089AEBDE8F88700000000111000100240B8
:100A700000080140000C014000100140001401403A
:100A800008000140080401400AB1016101E00B04C3
:100A900003617047014800687047000004000020AF
:100AA0000348006803490978084401490860704711
:100AB000040000200C00002010B50848006840F039
:100AC000100006490860032000F0A8F80F2000F08D
:100AD00007F800F02BF8002010BD000000200240B5
:100AE00070B504460E4800784FF47A71B1FBF0F00F
:100AF0000C490968B1FBF0F5284600F029FF08B160
:100B0000012070BD102C07D200222146501E00F09B
:100B100047F80548046001E00120F2E70020F0E713
:100B20000C000020100000200800002008B500BFC5
:100B30001148806940F001000F49886108468069CA
:100B400000F00100009000BF00BF00BF0846C06970
:100B500040F08050C8610846C06900F080500090A5
:100B600000BF00BF00BF0549486820F0E06040F0CA
:100B70000070486000BF08BD001002400000014046
:100B800001460846002809DB00F01F0301229A40B5
:100B900043099B0003F1E023C3F8002100BF704725
:100BA0002DE9F05F80460D461646002701F004FF50
:100BB000074639462A46334601F00700C0F1070AC6
:100BC000BAF1040F02D94FF0040A01E0C0F1070A9C
:100BD000D14600F1040ABAF1070F02D24FF0000A21
:100BE00001E0A0F1030AD4464FF0010A0AFA09FA1B
:100BF000AAF1010A0AEA020A0AFA0CFA4FF0010BFA
:100C00000BFA0CFBABF1010B0BEA030B4AEA0B04EA
:100C10002146404601F0D8FEBDE8F09F00BF00F03D
:100C20000702064B19684FF6FF031940044B0B43AC
:100C300043EA0221014B196000BF70470CED00E050
:100C40000000FA0570B504460D460CB9012070BDD0
:100C50005A48006800F00700A8420ED257480068C2
:100C600020F007002843554908600846006800F056
:100C70000700A84201D00120E9E7207800F0020037
:100C800002281DD1207800F00400042805D14C482A
:100C9000406840F4E0604A494860207800F008006D
:100CA000082805D14648406840F4605044494860EF
:100CB0004348406820F0F000A1680843404948607C
:100CC000207800F0010078B36068012806D13C4824
:100CD000006800F4003090B90120B8E7606802288D
:100CE00006D13748006800F0007040B90120AEE737
:100CF0003348006800F0020008B90120A7E7304837
:100D0000406820F00300616808432D494860FFF700
:100D1000C1FE064609E0FFF7BDFE801B41F28831A7
:100D2000884202D9032092E707E02548406800F096
:100D30000C006168B0EB810FEDD12048006800F035
:100D40000700A8420ED91D48006820F0070028437C
:100D50001A4908600846006800F00700A84201D060
:100D6000012074E7207800F00400042807D114481B
:100D7000406820F4E060E168084311494860207849
:100D800000F00800082808D10D48406820F46050A1
:100D9000216940EAC1000A49486000F019F8084991
:100DA0004968C1F30311074A515CC840064908600D
:100DB00006480068FFF794FE002048E70020024044
:100DC000001002406E3100081000002008000020D2
:100DD00070B500210022002400230020134D696813
:100DE00001F00C05F5B1042D02D0082D19D101E058
:100DF0000F4819E00F4DC1F38346AB5D01F4803518
:100E000055B10A4D6D68C5F340450B4E725D084DF6
:100E10005D43B5FBF2F402E0084D03FB05F4204608
:100E200002E000BF024800BF00BF70BD00100240DA
:100E300000127A005C3100086C31000800093D00A6
:100E4000F8B504460CB90120F8BD207800F0010087
:100E5000002878D0F848406800F00C0004280CD036
:100E6000F548406800F00C00082811D1F2484068AD
:100E700000F48030B0F5803F0AD1EF48006800F4FC
:100E8000003000285FD0606800285CD10120DBE7DB
:100E900000BF6068B0F5803F06D1E748006840F4C5
:100EA0008030E549086028E0606858B9E248006889
:100EB00020F48030E04908600846006820F4802073
:100EC00008601AE06068B0F5A02F0BD1DA4800681E
:100ED00040F48020D84908600846006840F480301B
:100EE00008600AE0D448006820F48030D2490860E5
:100EF0000846006820F48020086000BF606888B160
:100F0000FFF7C8FD054606E0FFF7C4FD401B642857
:100F100001D9032098E7C848006800F40030002891
:100F2000F2D010E0FFF7B6FD054606E0FFF7B2FD90
:100F3000401B642801D9032086E7BF48006800F4FD
:100F400000300028F2D1207800F00200022857D1AA
:100F5000B948406800F00C0050B1B748406800F054
:100F60000C00082818D1B448406800F4803098B9C3
:100F7000B148006800F0020020B12069012801D0CA
:100F8000012061E7AC48006820F0F800616940EAA0
:100F9000C100A949086033E02069E8B10120A749F0
:100FA0000860FFF777FD054606E0FFF773FD401B7D
:100FB000022801D9032047E79F48006800F002009B
:100FC0000028F2D09C48006820F0F800616940EAEF
:100FD000C1009949086013E0002098490860FFF7B4
:100FE00059FD054606E0FFF755FD401B022801D9D3
:100FF000032029E79048006800F002000028F2D1A1
:10100000207800F0080008282DD1A069B8B101208F
:101010008B490860FFF73EFD054606E0FFF73AFD05
:10102000401B022801D903200EE78348406A00F0E4
:1010300002000028F2D0012001F01AF913E000208C
:101040007F490860FFF726FD054606E0FFF722FD11
:10105000401B022801D90320F6E67748406A00F0D9
:1010600002000028F2D1207800F00400042873D197
:1010700000277148C06900F0805070B900BF6E4809
:10108000C06940F080506C49C8610846C06900F0F2
:101090008050009000BF00BF01276A48006800F43C
:1010A0008070B0B96748006840F480706549086096
:1010B000FFF7F0FC054606E0FFF7ECFC401B642858
:1010C00001D90320C0E65F48006800F48070002862
:1010D000F2D000BFE068012806D15748006A40F00E
:1010E00001005549086227E0E06858B95248006A93
:1010F00020F00100504908620846006A20F0040010
:10110000086219E0E06805280BD14B48006A40F0FE
:101110000400494908620846006A40F0010008627C
:101120000AE04548006A20F0010043490862084689
:10113000006A20F00400086200BFE068A0B1FFF779
:10114000A9FC054609E0FFF7A5FC401B41F28831E8
:10115000884202D9032077E622E03748006A00F08F
:1011600002000028EFD012E0FFF794FC054608E0EB
:10117000FFF790FC401B41F28831884201D90320DF
:1011800062E62D48006A00F002000028F0D1012F2D
:1011900005D12948C06920F080502749C86100BFA7
:1011A000E069C8B32448406800F00C00082860D00B
:1011B000E069022848D1002020490866FFF76AFC50
:1011C000054606E0FFF766FC401B022801D9032014
:1011D0003AE61948006800F000700028F2D1206A51
:1011E000B0F5803F07D11448406820F40030A16872
:1011F000084311494860D4E9080108430E49496889
:1012000021F4741108430C49486001200B49086619
:10121000FFF740FC054607E03DE0FFF73BFC401BC5
:10122000022801D903200FE60348006800F000708F
:101230000028F2D02FE000000010024000004242DF
:101240008004424200700040002014490866FFF705
:1012500021FC054606E0FFF71DFC401B022801D9D2
:101260000320F1E50E48006800F000700028F2D17C
:1012700011E0E069012800D1E6E50948466806F476
:101280008031206A814204D106F47011606A814283
:1012900001D00120D8E50020D6E500000000424240
:1012A000001002403EB5044600255248006818214F
:1012B000B0FBF1F04FF47A71B0FBF1F064214843D8
:1012C0000190019802902068406820F02000216879
:1012D00048602068406800F0800098B1464860642B
:1012E00000BF029820B9606D40F04000606506E0E4
:1012F0000298401E029094F851000728F1D100BFD7
:10130000019802902068406800F0400098B13B4886
:10131000206400BF029820B9606D40F04000606515
:1013200006E00298401E029094F851000728F1D17F
:1013300000BF019802902068406800F0020010B3DE
:10134000A06C00B30020A16C4863A06CFFF75AF8B2
:1013500008B1402060652068406820F002002168E4
:10136000486000BF029820B9606D40F040006065A1
:1013700008E00298401E02902068806800F0020099
:101380000028EFD000BF2068406800F00100B0B135
:10139000E06CA0B10020E16C4863E06CFFF732F82C
:1013A00008B1402060652068006820F04000216896
:1013B00008602068406820F0010021684860002033
:1013C000E087E086606D402801D1012501E0002022
:1013D000606500BF002000902068C0680090206811
:1013E0008068009000BF00BF012084F851002846AB
:1013F0003EBD0000100000209124000821240008B8
:1014000070470000F8B50446206846682068856883
:10141000C5F3801048B905F0010030B1C6F3801063
:1014200018B12046216C8847F8BDC5F3400030B1A3
:10143000C6F3C01018B12046616C8847F4E7C5F3C5
:10144000401018B9C5F38010002871D0C6F34010C1
:1014500000286DD0C5F38010F0B194F85100032836
:101460000ED0606D40F00400606500BF0020009069
:101470002068C068009020688068009000BF0BE082
:1014800000BF002000902068C0680090206880683D
:10149000009000BF00BFC7E7C5F3401088B1606D82
:1014A00040F00100606500BF002000902068806867
:1014B00000902068006820F040002168086000BFAC
:1014C00000BF606D70B32068406820F0E0002168C4
:1014D0004860012084F8510006F0020010B906F0BF
:1014E000010000B32068406820F0030021684860D4
:1014F000E06C50B10F48E16C4863E06CFEF7AEFF62
:1015000018B1606D40F040006065A06C50B10948B2
:10151000A16C4863A06CFEF7A1FF18B1606D40F0AC
:101520004000606502E02046FFF76AFF7CE7FFE7C6
:1015300000BF79E7B124000810B504460CB90120BA
:1015400010BD606A38B96068B0F5827F00D105E0EF
:101550000021E16102E00021216161610021A162BD
:1015600094F8510028B9002084F85000204600F07B
:1015700043F8022084F851002068006820F0400001
:1015800021680860A08800F48270218901F4044178
:101590000843A18901F400610843217C01F00201A4
:1015A0000843217D01F001010843218B01F4007102
:1015B0000843217F01F0380108432021095D01F033
:1015C00080010843218D01F400510843216808601F
:1015D0000421A06901EA1040216848602068C069C0
:1015E00020F400602168C86100206065012084F853
:1015F00051000020A4E7000010B586B0044600208A
:1016000002900390049005903949206888426CD17B
:1016100000BF3848C06940F480403649C861084678
:10162000C06900F48040019000BF00BF00BF0846C1
:10163000806940F0080088610846806900F0080071
:10164000019000BF00BF4FF42040029002200390A1
:101650000320059002A92848FFF786F84FF4804040
:10166000029000200390049002A92348FFF77CF821
:1016700022482349086000204860002120488160FA
:101680008021C1600021016141618161C161FFF779
:101690000BF808B1FEF7B3FE00BF1948E0644462DE
:1016A00000BF164814301749086010204860002118
:1016B000144881608021C1600021016141612021C5
:1016C00081610021C161FEF7EFFF08B1FEF797FECF
:1016D00000BF0C48A064446200BF002211462420D1
:1016E000FFF75EFA2420FFF74BFA06B010BD0000AA
:1016F0000038004000100240000C0140440002404D
:1017000084000020C80000202DE9FE4F04460F464B
:1017100090461D460C9E01200190FFF7BBF98146C3
:1017200094F851B060680290AA46BBF1010F0BD04B
:101730000298B0F5827F04D1A06810B9BBF1040F04
:1017400002D00220BDE8FE8F1FB1B8F1000F00D01B
:101750000DB90120F6E700BF94F85000012801D12F
:101760000220EFE7012084F8500000BF94F85100F8
:10177000042802D0052084F8510000206065C4F8D8
:101780003880E587A5872763E586A58620646064A1
:101790002068006800F04000402805D020680068FC
:1017A00040F0400021680860E068B0F5006F52D159
:1017B000606810B1BAF1010F09D1206B008821686F
:1017C000C860206B801C2063E08E401EE0863BE0FA
:1017D0002068806800F00200022810D1E08E70B10D
:1017E000019801280BD1206B00882168C860206B0C
:1017F000801C2063E08E401EE0860020019020685F
:10180000806800F0010068B1E08F58B12068C068BE
:10181000A16B0880A06B801CA063E08F401EE08756
:1018200001200190FFF736F9A0EB0900B0420BD37D
:10183000701C48B1012084F8510000BF002084F8DA
:10184000500000BF03207DE7E08E0028C0D1E08F6C
:101850000028BDD152E0606810B1BAF1010F09D182
:10186000206B007821680873206B401C2063E08E99
:10187000401EE0863CE02068806800F002000228FC
:1018800010D1E08E70B1019801280BD1206B007847
:1018900021680873206B401C2063E08E401EE086A8
:1018A000002001902068806800F0010068B1E08F9E
:1018B00058B12068C068A16B0870A06B401CA06381
:1018C000E08F401EE08701200190FFF7E3F8A0EBD6
:1018D0000900B04201D3701C00B94EB9012084F850
:1018E000510000BF002084F8500000BF032029E70A
:1018F000E08E0028BFD1E08F0028BCD14A46314697
:10190000204600F0DFFD40B12020606500BF0020D0
:1019100084F8500000BF012014E7A06850B900BF50
:10192000002000902068C0680090206880680090C7
:1019300000BF00BF012084F8510000BF002084F8E0
:10194000500000BF606D08B10120FBE60020F9E601
:1019500070B504462546681EB0F1807F01D3012092
:101960000FE0681E4FF0E02148610F214FF0FF307B
:1019700001F02AF800204FF0E0218861072008617B
:10198000002070BD10B50346002200BF93F83C0054
:10199000012801D1022010BD012083F83C0000BFC6
:1019A00022F0FF00CC6840EA040222F440708C6808
:1019B00040EA040222F480604C6840EA040222F407
:1019C00000600C6840EA040222F480500C6940EA8E
:1019D000040222F400504C6940EA040222F48040E0
:1019E000CC6940EA04021868426400BF002083F812
:1019F0003C0000BF00BFCEE730B502460B4600BF3B
:101A000092F83C00012801D1022030BD012082F86B
:101A10003C0000BF022082F83D0010684468106856
:101A2000816824F070041868044310684460104D05
:101A30001068A8420BD01068B0F1804F07D00D4D50
:101A40001068A84203D00C4D1068A84205D121F0BF
:101A500080015868014310688160012082F83D00D0
:101A600000BF002082F83C0000BF00BFCDE70000AF
:101A7000002C0140000400400008004010B504465E
:101A80000CB9012010BD94F83D0028B9002084F85D
:101A90003C00204600F026F8022084F83D00211D7D
:101AA000206800F03BFE012084F8460000BF84F867
:101AB0003E0001213F2001554020015541200155A4
:101AC00000BF00BF012084F842004320015544209C
:101AD00001554520015500BF012084F83D0000203C
:101AE000D0E7000008B5094A016891420DD100BF56
:101AF0000749896941F40061054A91611146896984
:101B000001F40061009100BF00BF08BD002C01403E
:101B1000001002402DE9F04104460D46002700BFA9
:101B200094F83C00012802D10220BDE8F081012098
:101B300084F83C0000BF022084F83D0020688668DD
:101B400026F0770626F47F462068866028685028AD
:101B500033D00CDC202850D004DC00284BD01028D7
:101B600051D149E0302849D040284CD139E0602893
:101B70002DD0702807D0B0F5805F03D0B0F5005F9E
:101B800041D10DE041E0D5E902136A68206800F018
:101B900018FE2068866846F077062068866034E084
:101BA000D5E902136A68206800F00BFE206880689F
:101BB00040F480402168886027E0EA68696820680E
:101BC00000F0D0FE5021206800F006FE1DE0EA681B
:101BD0006968206800F0D9FE6021206800F0FCFDF3
:101BE00013E0EA686968206800F0BCFE40212068C4
:101BF00000F0F2FD09E000BF00BF00BF29682068C7
:101C000000F0EAFD01E0012700BF00BF012084F8D9
:101C10003D0000BF002084F83C0000BF384684E748
:101C200010B586B004460020029003900490059001
:101C30001C492068884218D100BF1B48806940F0C9
:101C40000400194988610846806900F00400019089
:101C500000BF00BF4FF44060029002200390059047
:101C600002A91248FEF780FD1AE011492068884257
:101C700016D100BF0C48806940F008000A4988610D
:101C80000846806900F00800019000BF00BFC02036
:101C9000029002200390059002A90648FEF764FD19
:101CA00006B010BD002C01400010024000080140A9
:101CB00000080040000C01402DE9F04104460D46AB
:101CC0001646002700BF94F83C00012802D10220EC
:101CD000BDE8F081012084F83C0000BF36B1042E3D
:101CE0001BD0082E31D00C2E5ED145E0294620684D
:101CF00000F07CFD2068806940F008002168886160
:101D00002068806920F0040021688861206880696B
:101D1000296908432168886148E02946206800F065
:101D200095FD2068806940F4006021688861206822
:101D3000806920F480602168886120688069296951
:101D400040EA01202168886130E02946206800F0DF
:101D5000B1FD2068C06940F008002168C8612068B2
:101D6000C06920F004002168C8612068C069296941
:101D700008432168C86119E02946206800F0CEFDBB
:101D80002068C06940F400602168C8612068C069AB
:101D900020F480602168C8612068C069296940EA30
:101DA00001202168C86101E0012700BF00BF00BF1A
:101DB000002084F83C0000BF384689E710B504468F
:101DC0000CB9012010BD94F83D0028B9002084F81A
:101DD0003C00204600F026F8022084F83D00211D3A
:101DE000206800F09BFC012084F8460000BF84F8C6
:101DF0003E0001213F200155402001554120015561
:101E000000BF00BF012084F8420043200155442058
:101E100001554520015500BF012084F83D000020F8
:101E2000D0E7000008B5094A016891420DD100BF12
:101E30000749C96941F00401054AD1611146C969E0
:101E400001F00401009100BF00BF08BD0008004080
:101E50000010024070B504460D4615B994F83E00D6
:101E60000BE0042D02D13F20005D06E0082D02D1D9
:101E70004020005D01E04120005D012801D00120EB
:101E800070BD1DB9022084F83E000EE0042D03D180
:101E900002213F20015508E0082D03D102214020F6
:101EA000015502E002214120015501222946206806
:101EB00000F076FC19492068884201D1012000E039
:101EC000002028B12068406C40F40040216848643C
:101ED0001249206888420BD02068B0F1804F07D0AB
:101EE0000F492068884203D00E49206888420CD1EF
:101EF0002068806800F00706062E0CD02068006875
:101F000040F001002168086005E02068006840F0AA
:101F10000100216808600020B2E70000002C0140A9
:101F2000000400400008004000BFFEE708B500BF05
:101F30000E48406940F001000C494861084640697C
:101F400000F00100009000BF00BF002211460E20EB
:101F5000FEF726FE0E20FEF713FE002211460F208C
:101F6000FEF71EFE0F20FEF70BFE08BD001002401C
:101F700000B585B00020019002900390049000BF4E
:101F80003048806940F020002E4988610846806909
:101F900000F02000009000BF00BF00BF084680692D
:101FA00040F0080088610846806900F00800009051
:101FB00000BF00BF00BF0846806940F00400886190
:101FC0000846806900F00400009000BF00BF0022B6
:101FD00040F603411C48FEF757FD00224FF44071C4
:101FE0001A48FEF751FD40F603400190012002908F
:101FF000002003900220049001A91348FEF7B4FBCF
:102000004FF480500190124802900120039001A9E2
:102010000D48FEF7A9FB4FF440700190012002909B
:10202000002003900220049001A90848FEF79CFBC1
:10203000002211462820FEF7B3FD2820FEF7A0FD60
:1020400005B000BD00100240000C01400008014036
:102050000000211010B51248124908604FF4827038
:10206000486000210F488160C160016141614FF407
:10207000007181610021C1610162416281620A21B6
:10208000C162FFF759FA08B1FEF7B9F9002211460B
:102090002420FEF785FD2420FEF772FD10BD000010
:1020A000003800402C00002000B595B000201190B1
:1020B0001290139014900F9010901C2108A8FEF716
:1020C000F2F820216846FEF7EEF82F482F49086005
:1020D0003F20486000212D48816040F2E731C16017
:1020E00000210161416180218161FFF7C7FC08B1D6
:1020F000FEF785F94FF48050119011A92348FFF79E
:1021000009FD08B1FEF77BF92048FFF757FE08B13B
:10211000FEF775F900200F9010900FA91B48FFF7EC
:102120006BFC08B1FEF76BF9602008900020099065
:102130000A900B900C900D900E90082208A913485D
:10214000FFF7BAFD08B1FEF75AF90C2208A90F48AB
:10215000FFF7B2FD08B1FEF752F9002000900190A0
:102160000290039004904FF40050059000200790D7
:1021700069460648FFF706FC08B1FEF740F9034838
:10218000FFF74EFD15B000BD002C01400C010020F2
:1021900000B589B00020079008901C216846FEF722
:1021A00082F81C481C4908603F20486000211A48FA
:1021B000816044F61F61C16000210161802181615D
:1021C000FFF7FCFD08B1FEF71AF900200790089010
:1021D00007A91148FFF710FC08B1FEF710F96020BD
:1021E00000900020019002900490002269460A4865
:1021F000FFF762FD08B1FEF702F9042269460648BE
:10220000FFF75AFD08B1FEF7FAF80348FFF708FD9B
:1022100009B000BD000800405401002000BFFEE7E7
:1022200000BFFEE710B50548006818B10348006814
:10223000FFF738F801200249087010BD2400002083
:102240002800002010B5044604B910BD05480460FC
:1022500001200549087003480068FFF723F800BF14
:10226000F3E7000024000020280000207047000051
:1022700008B508490968C9084FF47A72B1FBF2F150
:102280004143009100BF00BF00994A1E00920029FF
:10229000F9D108BD1000002070B504460D462C4849
:1022A00004602C48056011212B48FDF7DAFF2B480C
:1022B0000021016041608160FEF7ECFB2849086065
:1022C0000020284908702849087000F087FD0F2178
:1022D000002000F069FE0021012000F065FE0121D0
:1022E000022000F061FE0321084600F05DFE00219F
:1022F000042000F059FE4C21052000F055FE062177
:10230000084600F051FE052218490A2000F054FE4C
:1023100005221649102000F04FFE1121084600F05A
:1023200043FE00211C2000F03FFE00211D2000F094
:102330003BFE7021072000F037FE00F07DFD00F02D
:1023400091FD0A20FEF7E4F900F0E8FD70BD000001
:10235000180000201C000020BC010020CE0100203D
:1023600014000020200000202100002086310008F9
:1023700010B586B0FEF78EFB044621480068201A8F
:10238000C82804D900201F49887000F083FE1E4829
:10239000007898B300201C49087005A800F078FD6B
:1023A000C8B99DF8140000F04000A0B111216846A2
:1023B00000F08AFD50B9112269461448FDF704FF68
:1023C0000F48046000F01AFE00F064FE4021072070
:1023D00000F0EAFD00BF9DF8140000F0200018B1E5
:1023E0002021072000F0E0FD9DF8140000F010000F
:1023F00018B11021072000F0D7FD00BF06B010BDB6
:1024000014000020CE01002000000020BC010020AC
:1024100010B50248FEF7F6FF10BD00002C000020AA
:102420000CB500210191194909681822B1FBF2F19C
:102430004FF47A72B1FBF2F164225143009100BF74
:10244000009921B9416D41F04001416508E00099D2
:10245000491E00910168896801F002010029EFD04E
:1024600000BF0168096821F040010268116001683D
:10247000496821F0E001026851600168C968019172
:1024800000BF072180F851100CBD00001000002093
:102490000168496821F0800102685160016809689B
:1024A00021F0400102681160072180F85110704747
:1024B00070B505466C6A0020E087E0862046FEF78E
:1024C0009FFF70BDF8B504460E46154633460122FF
:1024D00002212046009500F017F828B1606D40F009
:1024E000200060650320F8BD33460022802120468D
:1024F000009500F009F828B1606D40F0200060659B
:102500000320F0E70020EEE72DE9F84F04460D46E2
:1025100090461E46DDF82890FEF7BCFAA0EB0900B5
:10252000371AFEF7B7FA82462C480068C0F3CB3062
:102530007843009045E0701C002842D0FEF7AAFACC
:10254000A0EB0A00B84200D2A7BB2068406820F088
:10255000E000216848606068B0F5827F0DD1A06816
:10256000B0F5004F03D0A068B0F5806F05D12068AA
:10257000006820F0400021680860A06AB0F5005FA4
:102580000DD100BF2068006820F400502168086069
:102590002068006840F400502168086000BF0120F6
:1025A00084F8510000BF002084F8500000BF0320D1
:1025B000BDE8F88FFFE7009800B900270098401E9B
:1025C0000090206880682840A84201D1012000E0E6
:1025D00000204045AFD10020EAE7000010000020B5
:1025E00070472DE9F04704460D4616461F46DDE9C3
:1025F000099ADDF82080256066600FB1384601E059
:102600004FF47A702081B8F1000F01D0404601E00C
:1026100040F2DC506081B9F1000F01D0484601E082
:102620004FF4FA60A081BAF1000F01D0504601E0EA
:1026300044F62060E08131462846FFF70BFC6189B3
:10264000204600F002F8BDE8F08770B503898B42A0
:1026500000DD018983898B4200DA8189C48903689E
:102660001E68F66A751C01FB05F6B6FBF4F6B2B2FD
:1026700000BF436833B1042B08D0082B0AD00C2BC1
:1026800010D10BE003681B685A630CE003681B68F9
:102690009A6308E003681B68DA6304E003681B6858
:1026A0001A6400E000BF00BF70BD10B5FEF7F8F976
:1026B00010BD00B58FB0282105A8FDF7F4FD142149
:1026C0006846FDF7F0FD012005900004069000200B
:1026D00007900120099002200C90C1030D914FF446
:1026E000C0110E9105A8FEF7ABFB08B1FDF787FE00
:1026F0000F20009002200190002002904FF4806093
:1027000003900020049002216846FEF79BFA08B16E
:10271000FDF775FE0FB000BD7047000010B50268F0
:102720001C4B984208D0B0F1804F05D01A4B98420C
:1027300002D01A4B984203D122F070024B681A4320
:10274000144B984208D0B0F1804F05D0124B9842FC
:1027500002D0124B984203D122F44072CB681A4344
:1027600022F080034C6943EA040202608B68C36272
:102770000B688362074B984201D10B690363012305
:102780004361036903F001031BB1036923F00103F3
:10279000036110BD002C014000040040000800400F
:1027A00030B501F01F05012404FA05F3046A9C43C7
:1027B0000462046A01F01F0502FA05F52C43046265
:1027C00030BD30B50C46816821F47F4142EA0325D3
:1027D00025432943816030BD0A46816821F070019C
:1027E00042F00703194381607047000030B5026A68
:1027F000056A25F0010505624368846924F07004C8
:1028000024F003040D682C4322F002028D682A4351
:102810000D4DA84206D100BF22F00802CD682A4320
:1028200022F00402084DA84207D123F4807323F458
:1028300000734D692B438D692B43436084614D6860
:102840004563026230BD0000002C014030B5026AD1
:10285000056A25F0100505624368846924F4E044A4
:1028600024F440740D6844EA052422F020028D68A7
:1028700042EA05120E4DA84207D100BF22F08002A5
:10288000CD6842EA051222F04002094DA84209D162
:1028900023F4806323F400634D6943EA85038D6963
:1028A00043EA8503436084614D688563026230BDFD
:1028B000002C014030B5026A056A25F48075056276
:1028C0004368C46924F0700424F003040D682C43A9
:1028D00022F400728D6842EA05220F4DA84207D10A
:1028E00000BF22F40062CD6842EA052222F4806231
:1028F000094DA84209D123F4805323F400534D69B4
:1029000043EA05138D6943EA05134360C4614D68CA
:10291000C563026230BD0000002C014030B5036A7F
:10292000056A25F4805505624468C26922F4E042D4
:1029300022F440720D6842EA052223F400538D68A8
:1029400043EA0533064DA84204D124F480444D697E
:1029500044EA85144460C2614D680564036230BD79
:10296000002C014030B50B461446026A056A25F07A
:1029700001050562816921F0F00141EA041122F0AC
:102980000A021A438161026230BD30B50B4614461B
:10299000026A056A25F010050562816921F470411B
:1029A00041EA043122F0A00242EA0312816102628C
:1029B00030BD00BFFEE7000002480068C0F30220FF
:1029C000704700000CED00E010B5002804DB0A079A
:1029D000130E054A135406E00A07140E034A00F0CA
:1029E0000F031B1FD45410BD00E400E018ED00E0FD
:1029F00070B504460D46052C3BD2DFE804F0030E0B
:102A000019242F00002211461B4800F0D7F800229D
:102A100011461A4800F0D2F82CE02A460121164847
:102A200000F0CCF82A460221144800F0C7F821E053
:102A30002A460221104800F0C1F82A4601210F4819
:102A400000F0BCF816E02A4601210B4800F0B6F869
:102A50002A460121094800F0B1F80BE02A4602217C
:102A6000054800F0ABF82A460221044800F0A6F819
:102A700000E000BF00BF70BDDC010020F4010020B9
:102A80002DE9F04105460C460026002C09DD2046C4
:102A900000F08BF807463A460121294800F08EF8ED
:102AA00010E0002C09DA604200F07FF807463A4651
:102AB0000221234800F082F804E000221146204859
:102AC00000F07CF8002D09DD284600F06EF807467E
:102AD0003A4602211B4800F071F810E0002D09DA97
:102AE000684200F062F807463A460121154800F0B6
:102AF00065F804E000221146124800F05FF815B9AD
:102B00000CB9002618E0002D03DD002C01DD0126A4
:102B100012E0002D03DA002C01DA02260CE0002D71
:102B200003DA002C01DD032606E0002D03DD002C76
:102B300001DA042600E005263046BDE8F0810000F9
:102B4000DC010020F40100203EB5044608200221EB
:102B50000C4B0122CDE90014029019460A4800F0FE
:102B600019F90C204FF40061064B4A10CDE900140E
:102B700002901946054800F00DF900210846FFF7BC
:102B800037FF3EBD000C0140F4010020DC010020B5
:102B90000146642901DD6420704711F1640F02DAF7
:102BA0006FF06300F8E70846F6E70146002900DA0F
:102BB0000021642900DD6421C8B2704770B5044665
:102BC0000D46164625B1012D12D0022D30D11FE041
:102BD000A18800222068FDF757FFA1890022A06884
:102BE000FDF752FF0022D4E9040100F041F81FE094
:102BF000A18801222068FDF747FFA1890022A06873
:102C0000FDF742FF3246D4E9040100F031F80FE04D
:102C1000A18800222068FDF737FFA1890122A06862
:102C2000FDF732FF3246D4E9040100F021F800BF7D
:102C300000BF70BD10B5012211020248FDF724FF4C
:102C400010BD00000008014010B500224FF4807153
:102C50000148FDF719FF10BD000801400246484237
:102C6000824203DD8A4201DA002070471046FCE709
:102C700030B50B460468E46A641C54436425B4FB15
:102C8000F5F4A1B233B1042B07D0082B08D00C2BDC
:102C90000CD108E00468616308E00468A16305E002
:102CA0000468E16302E00468216400BF00BF30BD36
:102CB0000EB5FDF701FFFFF7FCFCFFF759F9FFF731
:102CC00035F9FFF7C7F9FFF7EFF9FFF761FA174892
:102CD000FFF73AFF1648FFF7B5FA00F089F844F617
:102CE0002060C11040F2DC524FF4FA73CDE90021AC
:102CF000029000220F491048FFF773FC44F6206051
:102D0000C11040F2DC524FF4FA73CDE90021029079
:102D1000042208490948FFF764FC08490648FFF700
:102D2000BBFA01E0FFF724FBFCE700000C010020E8
:102D30002C000020540100209C010020AC01002048
:102D400001464FF47A704843642290FBF2F000F29F
:102D5000DC5080B2704730B501464FF40063481C28
:102D600008B9002030BDB1F5006F08DBA1F50060A7
:102D70006424604340F2FF7490FBF4F208E0C1F574
:102D8000006464256C436042C41700EB5454E212A3
:102D900010B2E7E72DE9F04704460D4616461F46F8
:102DA000DDE908A8DDF828902560A680A760A4F8D2
:102DB0000CA0C4F81080C4F8149049464046FFF7B0
:102DC00049F8BDE8F087000010B501225102024821
:102DD000FDF75AFE10BD00000008014010B50022AA
:102DE0004FF400710148FDF74FFE10BD000801408F
:102DF00010B500BF0E48006840F080700C490860B4
:102E00000C48006840F001000A4908600020486052
:102E100000BFFFF7E3FFFFF70DFF0520FDF778FC8C
:102E20000A21002000F0C0F80220FDF771FC10BD5F
:102E3000FCED00E0001000E010B5E220074908704A
:102E4000FFF702FF322301220549044800F084F80D
:102E50000446FFF7EFFE204610BD00000C020020E4
:102E60002E02002010B5E12007490870FFF7ECFEA4
:102E7000322301220549044800F06EF80446FFF7AA
:102E8000D9FE204610BD00000C0200202E020020BA
:102E900070B50446FF200A490870FFF7D5FE3223BB
:102EA00001220849064800F057F80546FFF7C2FE20
:102EB0001DB914B1034800782070284670BD000089
:102EC0000C0200202E02002070B506460C46202C75
:102ED00000D9202461200F490870FF2221460D48A7
:102EE000401CFDF7B6F9FFF7AFFE6423621C0A49E8
:102EF000084800F031F80546FFF79CFE0DB1284662
:102F000070BD22460449491C3046FDF75DF900209A
:102F1000F6E700000C0200202E02002010B50B2462
:102F20002146002000F040F87021072000F03CF816
:102F3000FFF782FFFFF796FFFFF746FF0120FDF73F
:102F4000E7FB10BD0348007808B901207047002056
:102F5000FCE70000280000202DE9F84306460F4654
:102F600090461C460F48006810B90120BDE8F88360
:102F7000FDF790FD054608E0FDF78CFD401BA042E3
:102F800003D9FFF74FF90320F0E7FFF7DBFF002835
:102F9000F2D143463A463146024800940068FEF7B3
:102FA000B3FBE3E72400002013B50446012201A986
:102FB000204600F001F81CBD2DE9F04104460E4604
:102FC000154644F020000B4908702A46314609484E
:102FD000401CFDF7F9F8FFF737FE32236A1C06495B
:102FE0000448FFF7B9FF0746FFF724FE3846BDE85F
:102FF000F08100000C0200202E02002070B501209C
:10300000204988702048007808701F484078487030
:103010001D49B1F90200FFF79EFE06460521FFF7A4
:103020001DFE05461849B1F90800FFF794FE064653
:103030000521FFF713FE044612488580407828B921
:103040001048C48000200F4908811AE000210D4A71
:10305000D18011460C810C49887A01280AD10B498C
:10306000097839B90A49097809B9012100E0002134
:10307000074A11700549087005490978014A91729B
:1030800000BF70BDCE010020BC0100202100002047
:103090002000002070B52D48807820B90021084616
:1030A000FFF7A6FC70BD2948007830B1012845D152
:1030B00000210846FFF79CFC45E024484078B0B961
:1030C00022498988214AD288114408B2FFF760FD5D
:1030D00004461E4989881D4AD288891A08B2FFF71A
:1030E00057FD054669B260B2FFF7CAFC25E0174AF2
:1030F000928851B2154A928850B2FFF7C1FC144829
:10310000006850B11149B1F90800FFF719FE0446F3
:1031100021460F480068FFF798FA0E48006860B132
:103120000D48007810B14FF4E16001E04FF47A707F
:10313000014608480068FFF788FA04E000210846C5
:10314000FFF756FC00BF00BF00BFABE7CE01002079
:10315000180000201C0000202000002002030405AD
:10316000060708090A0B0C0D0E0F101001020000D3
:103170000000000000000102030406070809000027
:1031800000000102030452434C4E4B00AC310008D6
:10319000000000202C00000028010008D8310008A1
:1031A0002C000020840800004401000800000000FA
:1031B00000000000100000000100000000127A0072
:1031C00000000000000000000000000000000000FF
:0831D0000000000001000000F6
:04000005080000ED02
:00000001FF
